:020000041000EA
:1000000000B5324B212058609868022188439860DF
:10001000D860186158612E4B002199600221596106
:100020000121F02299502B49196001219960352056
:1000300000F044F80222904214D00621196600F024
:1000400034F8196E01211966002018661A6600F04E
:100050002CF8196E196E196E052000F02FF8012189
:100060000842F9D1002199601B49196000215960AB
:100070001A491B48016001219960EB211966A021F2
:10008000196600F012F800219960164914480160C1
:100090000121996001BC002800D000471248134993
:1000A000086003C880F30888084703B5996A0420EC
:1000B0000142FBD001200142F8D103BD02B5186610
:1000C0001866FFF7F2FF186E186E02BD00000240BE
:1000D000000000180000070000035F00212200005C
:1000E000F4000018222000A00001001008ED00E03C
:1000F00000000000000000000000000074B24E7A12
:1001000000000420C1010010B57A0110D1050210D1
:1001100000000000000000000000000000000000DF
:10012000000000000000000000000000B57A01108F
:100130000000000000000000B57A0110B57A01103F
:100140004D800110B57A0110B57A0110B57A011011
:10015000B57A011075030010B57A0110FD01001089
:10016000B57A0110B57A0110B57A0110857F0110BA
:10017000B57A0110E17F0110B57A0110B57A01104E
:1001800001000020B57A0110B57A0110B57A01108E
:10019000B57A0110B57A0110B57A0110B57A01105F
:1001A000B57A0110B57A0110B57A0110B57A01104F
:1001B000B57A0110B57A0110B57A0110B57A01103F
:1001C00018F0BCF8084809490022814201D004C057
:1001D000FBE707480749084A814202D008CA08C01D
:1001E000FAE716F0ABFE00DE78010020DC3D0020CF
:1001F000000000207401002020500210FEB506AF60
:10020000564A9568012000904402554B1869554E96
:1002100000282BD05869002828D0A80726D51846D2
:100220001030019001A817F085FE00291CD0002293
:100230003368234206D18A4204D2336A1B0E8354A8
:10024000521CF5E7464BD869801859694900411A94
:1002500000D30846BFF35F8FD86180204249086011
:100260001846203018F0F8F83D4B3C4AE8063ED5D9
:1002700080203D490860186800281BD05868002875
:1002800018D0586899680918D8685A6852008A1AAC
:1002900000D31146814221D0029302A817F031FE0B
:1002A00000223368DB030ED48A420CD2835CF360F5
:1002B000521CF6E710681021884310601846283059
:1002C00018F0CAF813E0264B98688018596849005E
:1002D000411A00D30846BFF35F8F98609868D968C9
:1002E00088421E4A03D11068102188431060E80537
:1002F00004D50098F06280201B490860254214D084
:1003000017F0D8FE044619480EF0D8FB342000211F
:10031000134A1154106B401C1063E0B217F02EFF0B
:100320000220F062802010490860680514D517F09B
:10033000C1FE04460E480EF0C1FB34200849009A65
:100340000A54086B401C0863E0B217F017FF042042
:10035000F062802004490860FEBDC0462C01205098
:10036000000100200400205080E200E05C22021026
:100370006C220210FEB506AF01262048056CE80489
:100380001F4C05D5300320601E48203018F064F85B
:10039000280405D5F00320601A48203018F05CF8D6
:1003A000680405D5B00320601648203018F054F8D2
:1003B000E80304D530042060134818F04DF8E8062F
:1003C00000D4FEBD0D4801680191016000260E4D6C
:1003D0000E480290202EF4D0019CF440E00702D099
:1003E000029818F039F8A00702D5284618F034F81A
:1003F0000298083002900835B61CEBE758001150FF
:1004000090301150B03C0020843100200431002095
:10041000F0B503AF8BB00E460D684C68E368244915
:100420000F22284602939847012100283CD10191D0
:10043000B07A00060CD4234901222846029B984733
:10044000002821D11D490222304616F099FE22E0F3
:10045000184902222846029B9847002814D106A872
:10046000012101700590049403951348089003A896
:100470000790B068F1680A91099007A80F49022215
:1004800016F07EFE002801D001990DE003A80C496A
:10049000022216F0C3FF0028019905D10A49012262
:1004A0002846029B9847014608460BB0F0BDC0465F
:1004B000E81C0210EF3E0210F43E02105C440210F1
:1004C000EC3E0210EE3E0210F13E021080B500AF8D
:1004D0000169002911D04369491E01618268511CDC
:1004E0008160C1685918491CC16003684168184699
:1004F00004F07EF90146012080BD002080BDD4D4E7
:10050000FEB506AF0C4628490968C9053DD10290E1
:10051000206800283ED101924D208000261800213D
:10052000C843254601C5307A012804D120460C3045
:1005300017F06EFF317A05CE083E904201D1C9070F
:100540000FD021461431431C00220093102B134678
:1005500000D0009B33603272122242438E5C082E20
:1005600007D1019806C8284617F05DFF0826029DAE
:1005700006E08918029D681C491C11221FF0E3FC4B
:100580002E702068401C2060FEBD084817F01BFB41
:1005900017F040FB064817F00BFB0FF09BFD17F020
:1005A000F7FB17F037FBC04604ED00E078000000D1
:1005B00069000000FEB506AF044626480068C00585
:1005C00039D1206800283BD102910021C84322463E
:1005D00001C201925C20205C25465C35012804D1D3
:1005E00020460C3017F014FF2978606DA26D0223AD
:1005F000904202D1C9071E460FD000932146143104
:1006000000222A70431C102B00D01A46626580001D
:100610000E58F0B20228009B06D1029806C8019835
:100620001D4617F000FF28462168491C2160FF2164
:100630008E433018FEBD084817F0C5FA17F0EAFAE5
:10064000064817F0B5FA0FF045FD17F0A1FB17F0BB
:10065000E1FAC04604ED00E0780000006900000007
:10066000F0B503AF85B00A46044602AD28462146E0
:1006700016F074FC287800280FD0012816D12569BF
:10068000A068049E039A1A4B294618F0ABFB06702B
:10069000E068A84226D0002105E002A9E0682269AE
:1006A00090421FD049780170401C18E002A8407A9F
:1006B00001902569A068049E039A0C4B294618F006
:1006C00091FB0670E1680220A9420CD0019A0A70E1
:1006D0004A1CE260AA4206D000204870881CE060F4
:1006E000102000E0022005B0F0BDC046C43B02105F
:1006F000B43B0210B0B502AF1446054613F0F6FA4B
:10070000C0B2102804D128462146FFF7A9FFB0BD8A
:100710000220B0BDB0B502AF1446054613F0E6FAAC
:10072000C0B2102804D128462146FFF799FFB0BD7A
:100730000220B0BDF8B504AF0E460546002113F007
:10074000D5FAC0B20224102835D131782846FFF7F7
:1007500087FFC1B210292DD17078012817D101214E
:10076000284613F0C3FAC0B2102824D1F1782846E5
:10077000FFF776FF0446C0B210281CD1B178284696
:1007800013F0B4FAC4B2102C15D0022413E00021E7
:10079000284613F0ABFAC0B210280CD1B178284625
:1007A000FFF75EFF0446C0B2102804D1F178284656
:1007B000FFF756FF04462046F8BDB0B502AF044629
:1007C000C068002809D025460C35284613F006FBE2
:1007D000002800D0B0BD002028602068012804D186
:1007E000606800216160A168B0BD0020B0BDD0B5D7
:1007F00002AF814205D3994203D81218091A104654
:10080000D0BDBC681A46234616F0E4FFF8B504AF25
:1008100004462020205C002804D0032867D1E56925
:10082000286811E00DCC0C3C25460C350DC582889E
:10083000934202D9002001264DE0827925461835E1
:100840007F201040A061E5610F284CD8C0002B4AE2
:1008500010180B684A68194617F01BFE2868102804
:100860003CD2C00028494018802541592748401CE7
:10087000014202D0032630462DE0009123460C337E
:100880000DCB4188008800F01DFAA069102825D200
:1008900061691E4A114001262B467503009A954353
:1008A0006918F2038918C000174A10180093C15044
:1008B0000C201EF036FDA06910280FD2C00012498E
:1008C00008186169114A11400D4321218902294309
:1008D000009A8150022020342670F8BD08481D215E
:1008E000084A16F0B7FF1021034A16F0B9FF014875
:1008F00017F0B6F8F81C0210081D02100431002091
:10090000283902108439021000001050FF03000043
:10091000DCB504AF14460A46014600930020234686
:10092000FFF765FFDCBDD4D4F0B503AF85B00C464E
:1009300006462020085C002804D0032873D1E5690E
:1009400028680BE00BCC0C3C25460C350BC5817997
:1009500025461835E5617F200840A0610F285ED844
:10096000C0003449081806CA17F093FD28681028FB
:1009700050D2C0003249401884214558314A501C99
:10098000054203D00220307003233FE02846104088
:1009900062690123049282421A4633D30391019380
:1009A0000296E6682169284B0090049AFFF7B0FF91
:1009B00002460B467188308800F068F9A06910285B
:1009C00028D201214E03AE43E16889881D4A1140B7
:1009D0007118C0001A4A1018039D41510C201EF0D6
:1009E000A0FCA069102815D2C00015490818E168BC
:1009F0008988144A11400E439119491C4151002223
:100A000000AE49CE706000217170327020342370C6
:100A100005B0F0BD08481D21084A16F01BFF102143
:100A2000034A16F01DFF014817F01AF8281D02109E
:100A3000481D021084310020283902109439021018
:100A400000001050FF030000381D021080B500AFF9
:100A5000C0B20C2804D2052109078001401880BDCE
:100A600002481D21024A16F0F5FEC046F838021071
:100A700018390210F8B504AF17F01CFB104C217A9E
:100A80004D1E2572C0B217F079FB280600D0F8BDC4
:100A900017F010FBA1690091E569C0B217F06EFB79
:100AA0000026084C1E2EF2D00098294632461FF030
:100AB0002DFAC00701D01F202060761C0834F1E712
:100AC000B03C002004400140D0B502AF0C4617F006
:100AD00077FB0168302291432207120E0A4302601D
:100AE000D0BDD4D4F0B503AF87B015460E46029002
:100AF0004820105C002821D028464830437804ACB8
:100B0000204631462A4600F03BF82078022830D0B3
:100B100004A9CA7803AB9A704A78897809028918BF
:100B20001980059C069D029E3070701C03A903224B
:100B30001FF009FA7460B56007B0F0BD002301939F
:100B40001F2B0BD804AC204631462A4600F018F87B
:100B500020780228DCD10598431CF1E7074817F0FC
:100B600027F8019821460FF0D5FA17F011F917F080
:100B700051F8059C01200190F0E7C0465D0000009F
:100B8000F0B503AF89B0029010464A3001908078EA
:100B900000284DD10091086807900393DBB2FF2035
:100BA00041015068400006900026354604910592A8
:100BB000079C0698A84221D008955019028908463A
:100BC0002030824206D2039880180A401F25054033
:100BD000154300E015461F221A4001209040194697
:100BE0003346234303421DD19200154BD550064393
:100BF000089DAD1C4B1C059A0499DAE7029D039BE6
:100C0000AB72079C344300980460106841C5019C96
:100C10006078C0181F21084068702078C01808400C
:100C2000287003E00220029908704A6009B0F0BD04
:100C3000024816F0C8FF16F0EDFFC0466100000044
:100C400048002050F8B504AF0D788C78661BF6B2DA
:100C5000B34213D1C57384714C7804740C894482F7
:100C6000002B04D0126813787F221A4000E0002283
:100C7000827201228276897AC176F8BD024816F026
:100C8000A2FF16F0C7FFC0465E000000DCB504AF4F
:100C900089B28B420AD80849009180B207494418AA
:100CA0001046194622461EF029FBDCBD044816F00A
:100CB0008AFF16F0AFFFC046681D021000001050FA
:100CC00060000000E0B502AF89B28B4208D8074946
:100CD000009180B20649401819461EF00FFB8CBDEA
:100CE000044816F070FF16F095FFC046781D0210FC
:100CF000000010505F00000080B500AF17F060FAF0
:100D0000016848220A4304218A43026080BDD4D48A
:100D1000FEB506AF02900126F0040025BC688442AF
:100D200008D8009301912346A00001214C05201A08
:100D3000824203D92946304603B0F0BD9007FAD16C
:100D40001149019C0868800701D44869FAE701202D
:100D500000071018C8600B610298C00710D01D462C
:100D60002046FFF773FE0A490160009941608560E3
:100D70002107490C074A8918C16000262146DAE795
:100D8000024816F05DFDC04608000014F81D021070
:100D90000000405029801200F0B503AF8BB005462B
:100DA00018F0B0F90C46C00702220023002801D039
:100DB00021468CE0049206930120059009AE30464E
:100DC000294612F04BFF3078012804D109A8407859
:100DD0000002801C64E00A98002811D0012800D08D
:100DE00085E0022003900890079507A800F086F898
:100DF00081B20A0AC1B2032302291ED1164631E08C
:100E000002200A90099509A800F078F8010ACAB2F0
:100E1000C1B200260125022901D1304637E00392F4
:100E2000C00766D009A800F069F8010AC9B2C2B2C9
:100E3000022A27D130460A4629E00E26C00711D0E3
:100E4000089800280ED001920293079909AD284610
:100E500012F004FF287801283FD109A84678039AA8
:100E6000029B00E0039A0020032B00D0059A314634
:100E700000D0194600D0304600040906090C40187D
:100E800080180DE0C00734D000250846039A002DD5
:100E900000D1060410028119681E854168000843CC
:100EA000069BC1B2022903D1FF2109020840C01CE0
:100EB00011490140090AC2B2032A01D1049A06E08D
:100EC000022A12D0059A14400B0401462246C8B2E9
:100ED0000002184310430BB0F0BD0A980228039A91
:100EE000029BC0D8019E0346BDE70E21EFE70E200E
:100EF0006EE70E2291E7C04600FFFF0080B500AF0D
:100F00004168002908D0491E416000680FF010FBBD
:100F1000C00703D1012002E0002000E00220090206
:100F2000081880BDD0B502AF01214C0641680029E8
:100F30000DD0491E4160006812F070FD03210906C2
:100F400002460A40A24201D1C0B20843D0BD2046A9
:100F5000D0BDF8B504AF0C46054600260C2E08D0CF
:100F6000A819214608F0EDFAC1B2361D1029F5D0B6
:100F7000F8BD1020F8BD80B500AF06C80838914212
:100F800006D00A46183202608268531C836000E073
:100F90000021104680BD80B500AF014640680028A2
:100FA00006D0401E48608868421C8A60096880BD7F
:100FB000002180BD80B500AF06C80838914206D038
:100FC0000A460C3202608268531C836000E00021F4
:100FD000104680BD80B500AF06C80838914207D0E2
:100FE0000F2252018A1802608268531C836000E05D
:100FF0000021104680BD80B500AF06C80838914278
:1010000006D00A46783202608268531C836000E092
:101010000021104680BD80B500AF824203D30B187B
:10102000111A184680BD114616F0D4FB80B500AFEA
:10103000824203D30B18111A184680BD114616F0D0
:10104000C9FBD4D4F0B503AFFFB09CB041229300EC
:1010500059AAD31805934369099303690893C36890
:101060000493521C039255AAD21C029282680792E2
:1010700002680B680A9149680B918169109101908F
:1010800040682030069000921E460B98834200D1A3
:1010900081E031460C310A980D9101601068401EC4
:1010A0001060079D29688A1C0698494B0DF071FD58
:1010B0000FF0D8F8014611AC204618F0AFFD0C96A1
:1010C00030460ECC0EC02868801C28600898056841
:1010D00009980668754366D0002E67D0049C208866
:1010E000109908180E903B4816F062FD208818F001
:1010F000E3FE0E9C204629461EF08AFF0F904543D2
:10110000641B204631461EF083FF0546324988475E
:101110006E43A01B0E90304CA0470F98A04716F0CE
:1011200037FE11A90C2202981EF00DFF59AC0120C8
:1011300020700598294E066055A90F2203981EF0CD
:1011400002FF0F98A0740E986074257424480068FC
:10115000C0052ED13068002830D10023D84330603C
:10116000311D14AC59AA204600F090FF3068401C95
:1011700030602078132802D01C4816F024FD109906
:10118000491C019810918161009A106800280D9BFC
:101190000C9E00D078E70B98301A411E8841FE1F44
:1011A000053EB546F0BD134816F046FC104816F053
:1011B00043FC0C4816F007FD16F02CFD0A4816F00B
:1011C000F7FC0EF087FF16F0E3FD16F023FDC04696
:1011D0000829021024000000997B011038350020F6
:1011E00004ED00E078000000690000008E000000BF
:1011F0009827021088270210F8B504AF18CA009487
:10120000083A009CA34210D00A290D4600D30A25B3
:101210004E1B0C246C431C1978330A29136004609C
:1012200043603146EDD80120F8BD0020F8BDFEB581
:1012300006AF0D4600901468019250680290264651
:10124000029884420BD0344678342E606C6001984A
:10125000046000982946FFF7F5FE0028EFD00298B9
:10126000301A411E8841FEBDF0B503AF85B014466B
:10127000019100901868029359680391019D0399A8
:10128000884218D006460C3602990E6018F0B8FB5A
:10129000049029688A1C0098094B0DF089FC049A77
:1012A0000EF0B0FF2868801C2860641E601C304669
:1012B000E5D3002000E00120214605B0F0BDC04686
:1012C00018290210FEB506AF0D4606461C680193AC
:1012D00058680290029884420ED02C6078346C607A
:1012E0000198046003CE2B46083EFFF7BDFF0A4677
:1012F000C007EFD1002000E00120114603B0F0BD8F
:10130000F0B503AF85B00446407A03947844007981
:101310004000874402B1BA4329006068206001465A
:10132000FE31227A7A44127952009744026D566750
:101330005000022008712068FE21002545542068D5
:10134000FF21455404312068455424689C200190B5
:101350002058C6005C34002E67D003CC0969083CD5
:101360008847083E0834F6E7207CC00700D086E0B6
:1013700020680121217481214900002242542468FF
:101380009C202058C5005C34002D70D003CCCA6866
:101390000021083C9047083D0834F5E7207CC00751
:1013A00070D1206801252574812149000222425410
:1013B00024689C202058C6005C34002E57D003CCF3
:1013C000CA682946083C9047083E0834F5E70021E2
:1013D0000246A032E2602161CBE700200870246859
:1013E0009C202058C5005C34002D40D003CCCA6935
:1013F0000021083C9047083D0834F5E700210246EB
:10140000A032E2602161CDE701250D7024689C20A7
:101410002058C6005C34002E29D003CCCA69294666
:10142000083C9047083E0834F5E703980168886D4A
:1014300048314000081802900298814217D00020DD
:10144000049108700398046801982058C6005C3421
:10145000002E08D003CC4B6A00222946083C98474E
:10146000083E0834F4E76D1C0499891CE4E7012068
:101470000399487205B0F0BD064816F0F1FA03482A
:1014800016F0EEFA024816F0EBFAFEDEC43902104E
:10149000B4390210681E021080B500AF002080BD74
:1014A00080B500AF002080BD80B500AF80BDD4D432
:1014B000FEB506AF044606463436407C0D46C046AF
:1014C00078440079400087440225303D5400E168AB
:1014D000A16060680A2820D223688988092808D179
:1014E00000222274002911D12C4837212C4A15F0F2
:1014F00095FD0293002915D0019000911FF050F83E
:101500004A424A41019822740099029B6361A0619A
:10151000E1610BE01E4816F0A3FA1E4816F053FBDB
:1015200016F078FB1C4816F091FAFEDE20461430C7
:1015300012F054FC002812D000223273A2682262FA
:101540006062A162204620302946FFF75FF9C0B2F1
:101550000228EBD0032817D10321084615E0207C90
:10156000012810D1002001213070A2686261A161C0
:10157000E061204614302946FFF748F9C0B203283D
:1015800002D1042101E0022001216174FEBDC046A8
:10159000982002106F0000007820021034370210EB
:1015A00088200210F0B503AF9DB015460E460446E4
:1015B0008720085C19680791119359681091324689
:1015C000E8320128149219D1106818AA002151712B
:1015D0001171D17003239370517010700B21062389
:1015E000304617F08FF87169B069401F884200D308
:1015F0005AE131690A5C521C0A54149A0695136820
:10160000082B00D329E158003018D8210025455275
:101610001168491C1160994200D828E1D921425C27
:10162000521C42543068012800D024E105947169AD
:101630007068884200D323E15B2189007118129100
:10164000B968089131690A5C521C0A540124B069D6
:10165000001DB460F06018AA9571557115710320D2
:101660000E90D07095705570049313700421072369
:10167000139330460C9117F045F81098010A18AAF8
:1016800003919171507122201071D47095700B9458
:1016900054701020107021213046139B17F032F83F
:1016A00009963246EF323F20C44320463F3011991D
:1016B0008B7C0D93098A13912346002B00D1EEE019
:1016C000401CD11840254E5D1B1D1499C91840318E
:1016D0000028F2D0F607F0D1139E412E00D3D2E0BD
:1016E00032463F32C0231340129A16880F93149645
:1016F000F3189EB20A960B9E36030B960A9AB242D4
:1017000000D9C9E0129A1380139E0E80FF22043282
:101710000A924A80431E0F2B00D394E0324615A94B
:101720000E9E0E720D9ECE718A800F9A4A80149A78
:101730000A80802630438871D800694A80180B23BC
:101740009A060292149B9A188260091D099E3046DF
:1017500017F02CF8089800283FD02520C000311839
:101760003F34002D00D1A5E0641C2D1F081DCA794F
:10177000002C0146F5D0D1070146F2D1129D2988EF
:101780000F9A14918A1893B20B998B4200D98EE06C
:101790002A80139A02800A994180601E0F2857D22E
:1017A000134618AA0E9911720D9DD57194719380EC
:1017B0000F9B538014991180029B0B43C000484932
:1017C0000818C360111D304616F0F0FF19981390E9
:1017D000189814900E980C90FFE73246503207CAC2
:1017E0003346483317F088F8069903984877109DD8
:1017F0000D773D4888613D48C882092048750498A6
:10180000087530460E462036119A9368D268079CB8
:1018100070C10B604A60364A0C3900F097F8139A91
:10182000100C05990882CA81149A100C88814A818B
:101830000C98887415A80C460CC80CC44E6100881E
:1018400020801DB0F0BD24481D21244A16F002F866
:1018500021481D21234A15F0FDFF1B4816F0A8F969
:10186000082016F099F916F093FA16F0D3F9174AF2
:10187000184615F0F5FF164816F0A5F916F0CAF946
:10188000144A15F0EDFF1F4816F092F9304618F093
:1018900013FB16F07DFA02E0164816F094F91A4888
:1018A00000901A48182109E0064A15F0D9FF11489E
:1018B00016F089F910480090104819211CAA104B05
:1018C00016F0A0F80C210210740000001C21021078
:1018D0007600000098420210453902106439021067
:1018E0000000105074390210010001222110000084
:1018F000D82002102C000000702102105421021088
:10190000503702102D000000442102102C2102103B
:1019100080B500AF80BD80B500AF0021016080BD03
:1019200080B500AF002080BD80B500AF002080BD35
:1019300080B500AF022080BD80B500AF80BD80B50E
:1019400000AF80BD80B500AF80BDD4D4D0B502AFAC
:10195000D423C358082B0AD2DB00C318D4309424F4
:10196000195194335A600168491C0160D0BD054883
:1019700016F01EF9082016F00FF916F009FA16F005
:1019800049F9C04673000000B0B502AF0D460446E9
:10199000163000F0EDFCC00706D11622204629467D
:1019A0001EF0D1FA2046B0BD02487921024A15F056
:1019B00035FBC04680210210BC210210B0B502AF39
:1019C0000D460446243000F0D3FCC00706D1242283
:1019D000204629461EF0B7FA2046B0BD02487921BC
:1019E000024A15F01BFBC04680210210BC210210E8
:1019F000D0B502AF044600F0BBFCC00701D1601CAB
:101A0000D0BD02487921024A15F008FB802102105E
:101A1000BC210210B0B502AF0D460446103000F0F4
:101A2000A7FCC00706D11022204629461EF08BFADB
:101A30002046B0BD02487921024A15F0EFFAC046AF
:101A400080210210BC210210B0B502AF0D46044641
:101A5000803000F08DFCC00706D180222046294648
:101A60001EF071FA2046B0BD02487921024A15F0F5
:101A7000D5FAC04680210210BC210210F0B503AF98
:101A8000CBB00446007BC00756D16568A168002032
:101A9000A9424DD301225305994249D8084628430B
:101AA0000005104644D10D2000070068002801D031
:101AB00002203DE0481B029016F0FCFAC0B20390F1
:101AC00000200C280BD00521090782015118401C69
:101AD0000A68520FF5D1CA68D201F2D5F8E7184862
:101AE00001680029FCD1012631020191009605A868
:101AF00004901EF081F91420008818210A881149E9
:101B00009047034631070498019A984745A80190E9
:101B1000002600993246049B16F08CFB2846029959
:101B20003246019B1EF04EFD039816F027FB042061
:101B3000012121734BB0F0BD034815F091FFC04661
:101B40001800001443340000CC210210F0B503AF9C
:101B5000D1B00546007CC00700D063E1AA68012629
:101B6000710500208A4200D920E1EB68891A8B4276
:101B700000D91BE11946FF31FF20069081430E91E9
:101B8000C91A8A42144600D30C460D91696808911F
:101B900031020D2000071094002C09960B900F9134
:101BA0000792059334D011AEFF2230460C460C92BA
:101BB0001DF0CAFB0D98211A109C0A199B4B304648
:101BC0000E460DF000F89A4A0092089A23461DF03E
:101BD00095FB0B980068002800D0E5E00495059877
:101BE000801B0D900998040645070520060716F08E
:101BF00061FAC0B20A9000200C2810D0810171183F
:101C0000401C0A68AA42F7D2CA682242F4D0F8E718
:101C100089491140FF2A10460E9318D89DE0854847
:101C200001680029FCD111A90D980F9A16F042FB0A
:101C30000A9816F0A3FA079A109BD01A01460C9C3A
:101C4000A1431943FF28049D099E00D885E0029016
:101C500004957507681E089C844209D991420B9827
:101C600000D9D6E0006800284ED00220049D9DE0F7
:101C700091420F9B00D9D0E0109822180391081AC6
:101C80006E4901400D913606052004070699C843A8
:101C90000A900D9800285DD011A8114610921A469E
:101CA0001EF051F90B98006800282AD10D980A9966
:101CB00040180D900F9810990918109116F0FAF924
:101CC000C0B20C9000205B4B0C2809D08101611838
:101CD000401C0A68AA42F7D2CA683242F4D0F8E738
:101CE00018680028FCD111A90E980F9A16F0E2FA94
:101CF0000C9816F043FA0F9B0E98C0180E90109A8D
:101D0000C7E70220049D50E0109822180D9203911D
:101D1000081A109034060520060716F0CBF9C0B259
:101D20000C9000200C2809D081017118401C0A6811
:101D3000AA42F7D2CA682242F4D0F8E73D480168C7
:101D40000029FCD10E980D99109A16F0B3FA0C9850
:101D500016F014FA099E02AD23CD0391C4B20420FB
:101D6000002C23D00E9011A810900F9E3146069A99
:101D70001DF0EAFA334B204610993246FEF7C8FDB3
:101D800004460E46304B03980899079AFFF743F92B
:101D900002460B462D480090204631461DF0AEFA13
:101DA0000B980068002804D00220099E2E7451B0C0
:101DB000F0BD0495059807990818FF3006998843E7
:101DC000C9434018109009980406460705200507E6
:101DD00016F070F9C0B20D9000200C2809D08101D6
:101DE0006918401C0A68B242F7D2CA682242F4D08D
:101DF000F8E7104801680029FCD111A910980F9A42
:101E000016F058FA0D9816F0B9F9049D099E0E982F
:101E1000CCE70F4B109815F0DDFC094B1098079A92
:101E200015F0D8FC0B4815F01BFEC046881D0210AB
:101E3000981D02101800001400FF3F0000FFFF7FF4
:101E4000A81D0210C81D0210D81D0210E81D0210A6
:101E5000B81D0210DC210210F0B503AF97B001925B
:101E60000090087B0028069103D0032804D18E68D7
:101E700006E00E684E6002E07D4815F0F1FD8E60D0
:101E8000B0687C490968C90500D0E9E07B4917F0D2
:101E900060FB0A9101680B9144680990B83035687D
:101EA00008967668079011F09FFE334600220B9942
:101EB000091A0B9294416E1A1A46A24110D24E1B77
:101EC0009C410CA8119981800596701908990860A9
:101ED000049463414B6010980C90644A154694E05A
:101EE0000395B0424BD902938320800009990818CA
:101EF00006C88B1A08385C425C41007A01234340D3
:101F0000234012A80373079C129414921391314634
:101F10000CF004FE002800D19CE00169491E01611B
:101F20000E430BD0C18810AA918041888288120488
:101F3000511810918668C468058818E012AD2846CB
:101F4000214617F017FB2D884848854200D184E0D0
:101F500012A8C18810AA9180418880880004401886
:101F60001090159C149E09984C3000F0C8F83F481A
:101F70008542029B38D01120C001854236D101989C
:101F800030C8099806460836806C0B90C10033466D
:101F9000002909D01A460839083350688542F7D11C
:101FA00010688442F4D113E00B98082802D130461F
:101FB00017F0FEFA216828468847099B9A6C072A81
:101FC00009D8D200B050B0184160986C401C986499
:101FD000264A551C19E0254A551C002815D0C26810
:101FE0000846904726483CE0039D6AE70CA81199F3
:101FF00081800398401C089908600B9843414B600E
:1020000010980C9005960494184A0A990868401C88
:102010000860501C854209D00EA80D9981800C984B
:102020000E90954206D106994E6828E700980280E6
:1020300003200BE0009CA01C0EA906221DF083FFCC
:102040000598A0600498E060258001200699087337
:1020500017B0F0BD0C4815F0F3FB0A4815F0F0FB83
:10206000054815F0B0FD15F0D5FDC0467F0800000D
:10207000EC21021004ED00E0780000004C22021078
:10208000680000000C220210FC210210F8B504AF19
:102090000D460446212040010E18307A002813D046
:1020A0001678132E25D0511C002B07D018680091EC
:1020B00006C80835284616F0B6F90099601CFF22BC
:1020C00004321DF040FF18E041208300706858433F
:1020D0002818103011461A461DF0F2FD7068401C99
:1020E000042800D1002070603168814201D10120B4
:1020F0003072284616F08CF913262670F8BDB0B55C
:1021000002AF0446056E00202066002D06D021682F
:102110006068496888476D1E0834F6E7B0BDB0B501
:1021200002AF1946154604467D20C200002328460A
:102130001DF0A1FD024620460B4616F0E7F9B0BDA2
:10214000F0B503AF87B0049104462920C100605C5C
:102150002246303200280592039111D0032846D13F
:10216000204610300290107878440079400087446F
:10217000024144211F002546103529CDE2690BE0BC
:102180000020107029CC22680C3C2146103129C156
:10219000E261214610310291214620312DC1A9076B
:1021A00001D001252AE0990706D00022A26330E081
:1021B00015794CE015790DE041780078AD0800956F
:1021C000FEF7A6FD0D46059A91710121014051715E
:1021D00064D115712846049914F078FA002801D0CA
:1021E000032013E0204634300CF01CF954E037484B
:1021F00015F036FC344815F033FCFEDE012005995D
:10220000087002980CF096F901204EE005990870CC
:1022100049E0954240D9234648332364A81A012156
:10222000FF2800D90802E06385086564206A666AB1
:102230000691417800780095B218FEF769FD0D46C9
:10224000059A917106990840507127D11571284659
:10225000049914F03BFA00282DD1204634300CF0BC
:10226000E1F82246383207CA0692666CA26AE36A2F
:10227000174D00950918FEF7BAFAB200E36B9342C6
:102280001BD8144A0092069A1DF038F8A06BE16B37
:102290004218A263E56ABCE70425AFE7012010708D
:1022A000E8B20528ADD1052503200399611808700F
:1022B000284607B0F0BD0420A8E70020064C1946C8
:1022C000234615F087FAC046081E02102C22021081
:1022D000181E0210381E0210281E021080B500AF12
:1022E0000178012907D10021417001780222027092
:1022F000012902D180BD034800E0034815F063FCCA
:1023000015F088FC590000005800000080B500AFAF
:1023100006C801234B400838134304D10021022290
:1023200002604160FEDE024815F04DFC15F072FCC3
:102330005900000080B500AF024815F044FC15F0CC
:1023400069FCC0465900000080B500AF06C80323F1
:102350004B400838134304D100210422026041603D
:1023600080BD024815F02FFC15F054FC5900000008
:10237000B0B502AF054615F09DFEC0B22C78002C1A
:1023800001D10121297015F0F9FE601E844120461B
:10239000B0BDD4D4FEB506AF06490091019000212E
:1023A0000491694603910291283002A90EF0D8F8F1
:1023B00006B080BDC441021080B500AF024A0023C0
:1023C0008354024A815080BDD71000005010000095
:1023D00080B500AF044600252848854244D02848EF
:1023E000461915F067FE3246B669002E01D0314617
:1023F00000E003219161C0B215F0C0FE1F482D1806
:10240000002EEAD11E4840191E4945181E48686230
:10241000284628302146FFF7CFFF2C6215F04AFEF0
:1024200021682560E961C0B2002900D140BF15F0E4
:10243000A5FE15F03FFE256800212160C0B215F011
:102440009DFE002D0ED015F035FEA96902229143A4
:10245000A961EE69C0B215F091FE696A2846884705
:102460003546EEE720BFE4E7084815F0A1FB0DF084
:1024700041FE15F08DFC15F0CDFBC046282F000065
:1024800078010020D8D0FFFF9523001057000000EE
:10249000F0B503AF87B00590192000010B18442058
:1024A000085C0C4644340D46069404920393C046DF
:1024B000784400794000874402AAAD246700286868
:1024C00002906E68A9682A6913035918019168611E
:1024D000AE61EA6129622C462434202120461DF099
:1024E0008BFC04214D4A2046069C0CF078FB039B94
:1024F000049A029EAE64E86429650198686500202C
:102500001870241D20461146FFF71AFEC6B2052E8C
:1025100004D10C2005990860032042E00294204673
:102520000CF0DFF8042E60D128462430002124224C
:10253000AB5CDB435E08552434401B1B33249E08F0
:10254000234026409B191C091B190F241C40091904
:10255000521C282AECD100220329019201D81146ED
:1025600000E00121029A11706C692E6A04212C4A44
:102570000CF035FB2B4AB218EC642B46503307C3E2
:10258000039801990171049A2C464C342046114657
:10259000FFF7D6FDC6B2052E05D10C2005990860BF
:1025A0000420069B30E020460CF09BF8042E1CD142
:1025B000002024216A5CD243530855241C40121B7E
:1025C000332394081A401C4012191309D2180F2300
:1025D0001340C018491C2829ECD1069B1979002901
:1025E00006D0042808D3002607E00420069B07E055
:1025F000042804D2022600E001260B2000E0062079
:10260000F1B2059A03C20120187007B0F0BD02486C
:1026100015F026FAFEDEC0469C2202108C22021023
:10262000AC220210FC0F0000F0B503AF8BB0059296
:102630000C4602903520C0000D183920C0000E183D
:10264000707E5431039100280696049504D0032827
:102650003BD0374815F004FA002001906861012151
:10266000317134493160306907907269236861685B
:10267000A360E1603046B67E0676AB612E680798AF
:102680002D1D45C5C91A00D20199080B049D28616A
:10269000090500D0401C069EE8616D2080002018CE
:1026A000FDF714FFC00734D00020039A1070B1600A
:1026B000A068E2686B68AD6823616561A061E26152
:1026C00021620F2040012018F0602646103608A82D
:1026D0003146059AFFF7DCFE08980C2813D00998BC
:1026E0000790089D30460CF02FF80B2D15D1079858
:1026F000C0B2069EF16809788142049DCDD1B268CE
:10270000012500200CE00220029908600320069EAB
:102710000AE000200546024602E00120069E079AD4
:10272000029921C10A60012070760BB0F0BDC0464D
:10273000BC220210FF0F0000F0B503AF87B00D46BA
:1027400002902820095C2E462836284670300396D1
:102750007944097949008F44025D601142000021EB
:1027600001705BCDA861E9612B626C62AE6228608A
:102770006B60AC60E9602E61039E143D361D04A8B9
:102780003146FFF785FE04980C2805D10C200299EC
:1027900008600320039E3AE0059C049801903046AF
:1027A0000BF0D2FF019B0B2B26D13470E0B2022834
:1027B00024D10120039C60712E46443620213046EE
:1027C0001DF01AFB0420002121766969AA696B6A51
:1027D0001B039A1829636E632646A863EA633035A3
:1027E0002846FFF7B3F9C4B2042C02D174790B2345
:1027F00006E00020042303E0200A00E00B23039EF0
:10280000029AE1B20002401813605060012030705B
:1028100007B0F0BD014815F023F9FEDECC2202100E
:10282000F0B503AFFFB0D0B007900C46983408461F
:10283000BC30059008465030089040780D4606920E
:102840004000C046784480884000874405000F015E
:102850001201280058008800002104910898017096
:10286000686C0390A863296868680290AB6C019358
:10287000EB632A6B6B6BA9602E460C360DC6E86CB9
:10288000039E6E65019EAE65EA65069A2B666866D4
:10289000A9660299E96628640598049901702E4694
:1028A000543609A8314601F069F90D98042804D17D
:1028B0000C20079908700320C6E0012008990870D1
:1028C0002846183009A9182204901DF03CFB304618
:1028D0000CF02AF8AE6A032E1FD10498006806286F
:1028E0001BD1002020702B4608330FCBAC6BEE6B56
:1028F0006C65AE65EA652B666866A966069A2C4625
:1029000054344EA8214600F08BF94E980C280AD179
:102910000C2007990870042096E0A8690690E869E1
:102920000490EC6A32E04F9804904E9E20460BF0E3
:102930004FFF0B2E59D1002005990870A86805900B
:10294000EE682A696B69AC6BE86B296C6C652C4688
:1029500058340DC469660598A866EE66069A2C463A
:1029600054344EA8214601F009F9529E042E04D198
:102970000C2007990870052066E04F9804904E9847
:102980000690539920460C460BF0CEFF0020089984
:102990000870022E06D00B21032E06D1079E049D3F
:1029A000069C42E00A21079E3FE06A69049883B2D0
:1029B000F00702D1934254D80424069129691E4697
:1029C0002E4B2046FEF727FB321B8A4242D8034695
:1029D0004EAD2846194618F0A9FF2D780A2D079EFE
:1029E0000AD1509D4F9C06991FE03446002008995B
:1029F00008700B21079E17E04EA9C878CEAA9070E8
:102A000048788B781B0218181080509804904F9CBF
:102A10000C310FA80690FC221DF052F990A8F82264
:102A200006991DF04DF92946049D3170701CCEA900
:102A300003221DF088FA7460B5600C3690A9F82264
:102A400030461DF03DF9012008994870FE1F053EF3
:102A5000B546F0BD0D460020094B11462A4614F03C
:102A6000B9FE00201946044B14F0B4FE014814F0DE
:102A7000F7FFFEDEEC220210FC2202100C230210F3
:102A80001C230210F0B503AF8DB0099008469030BA
:102A900007900846B03006900E46483670780D46CE
:102AA0000892C046784400794000874402B0B32CB5
:102AB0005A940020059030705849A967A86B04907B
:102AC000E96B03912B6C6C6C0294A86228680190EE
:102AD0006C68E9622A6A696AA860EC602A616961C7
:102AE0002B63029868672967EA660199E964089A86
:102AF0002C6568630798049981610399C161069800
:102B00000360059941712C464C340AA8214600F017
:102B1000DFFB0A980C2804D10C20099908600320D7
:102B200072E00B980A99A961E86101203070204693
:102B30000BF0B2FEA8690B2821D006281FD1002077
:102B400007990870A86805902B460C330ECBAC6A29
:102B5000E86AEC642C4650340DC40598E865296693
:102B6000089A2C464C340AA8214600F059F80A98D5
:102B70000C2807D10C2009990860042044E0A969B9
:102B8000EC693CE00B990A98059020460C460BF046
:102B90001FFE05990B2932D10021069A5171A86AAE
:102BA0000490E86A0590286B03906C6BA86802900B
:102BB000EB6828696969E86629676C671748A86740
:102BC0000298E8642B650798049981610599C161B1
:102BD00003981060089A4C350AA8294600F078FB43
:102BE0000A980C2804D10C200999086005200BE0F4
:102BF0000B9C0A98059028460BF04EFE0599002084
:102C00003070099812C0012070700DB0F0BD0248FC
:102C100014F026FFFEDEC0463C2302102C230210D7
:102C2000F0B503AF8DB009920D4605901F2000014D
:102C30000B18112040010A184420085C0C4644344B
:102C40000E467036903107912946B83108910696A4
:102C50004000C04678448088400087440800500007
:102C600056002400B500F80021013E016C010093DC
:102C700001920494002030762A682E1D51CE2969D5
:102C80006B69AA64E86429656B65AA61E9612B62D6
:102C90006862AC62EE62069E3446183403942C4699
:102CA0004834029415E00093019204942846483079
:102CB0000290304618300390307EC0467844007948
:102CC00040008744021F22365500AA6C2B464C3325
:102CD0000BCBAC4CEC6700242C676967AA65E965EF
:102CE0002B666866AC6601203074591A00D2214602
:102CF000080BE866090500D0401CA86706E0A0485C
:102D000014F0AEFE9D4814F0ABFEFEDE284668309F
:102D1000FDF7DCFBC0073FD00020089A10767161F8
:102D20002C4658341DCCF0610798046042608360E3
:102D3000C16034461C340AA82146099AFFF7A8FB53
:102D40000A9E0C2E60D020460BF0FEFC0B2E21D0EC
:102D5000062E1FD10020089908702B4658330FCB40
:102D6000069EF0617069079C23606160A260E0606C
:102D700029468C310AA801F05BFD0A980C2845D041
:102D80000A9C0B2CC2D00B9E0120039908700C2CBE
:102D900006D13EE0069EB9E70120039908700B2496
:102DA00002980BF00AFD0B2C00D0DFE00020009908
:102DB00008600121019CA17260722B4618330FCB71
:102DC000A964EA6409C4049C2E4648360AA8314620
:102DD000099AFFF729FC0A98022804D10C200599CA
:102DE00008600420C6E0049403900C9807900B9CA4
:102DF00030460BF0B8FC039801280FD1012028635E
:102E00006C63079EAE63B1E0032000E004200399E9
:102E100008700C20059908600320AAE000262E63A4
:102E20006C63079AAA63E00700D19AE0EA63E86955
:102E3000296A01F0EBFC286406990E772C461834B9
:102E40001ECCA964EC642A656B65A865049C2E46BB
:102E500048360AA83146099AFFF71AFB0A980C2847
:102E600004D10C2005990860052083E004940B9898
:102E700007900A9C30460BF067FC0B2C73D1079827
:102E8000C0B202286DD00020069E3071E86B2C463F
:102E900018341ECCA964EC642A656B65A865049C93
:102EA000294648310AA801F0C3FC0A980C2804D12D
:102EB0000C200599086006205CE004940A9C0B2C09
:102EC00053D100203070E86B2C4618341ECCA96416
:102ED000EC642A656B65A865049C2E4648360AA8F2
:102EE0003146099AFFF728FC0A980C2804D10C20D7
:102EF0000599086007203DE004940B9807900A9C10
:102F000030460BF050FC0B2C2DD100200899087492
:102F1000E86B0890286C07902E4618365CCEA86A9D
:102F2000E96AAA64EE642A4650321BC207982866F2
:102F300008986866049C48350AA82946099A00F052
:102F400023F80A980C2804D10C2005990860082061
:102F500010E004940B9E0A9C28460BF05CFC0B2CA2
:102F600004D10B2402E0079E00E00B9E059850C0A0
:102F70000120049C20700DB0F0BDC046DC22021080
:102F80005C230210FF0F0000F0B503AF97B00E46B0
:102F900001902520C000081809908020085C80312D
:102FA0000B913146A03107913146E031029115462F
:102FB0000C9608924000C0467844808840008744C0
:102FC000060048004B005800C90034006101306819
:102FD000039070680A90B0680590F06806903169B7
:102FE0000C98406900900C9883690C98C4691A0386
:102FF000081D86180496240300190C9C039E266263
:103000000C9C61620C9C009EA6620C9E0A9CF46261
:10301000059C3463069C7463B363F0635018AA493B
:10302000401804993164706417E00998007800280A
:1030300005D0032800D1E5E0A14814F011FD0B985C
:10304000446881680A91C16806910669426981698C
:10305000C0E09C4814F004FDFEDE002007990871D2
:10306000306B716B326A40360B9C6660A260E06028
:1030700021610B98041D10A821462A4601F05AFA36
:103080001098022800D1DDE0069010A80C301199AC
:103090000A91129E0DA925461CC81CC128460BF09A
:1030A000EFFA32460A990C9EF164326506980128BF
:1030B00000D1D1E0304654300D460DA91CC91CC0CA
:1030C00028460025B564002800D1CEE03066F06DBA
:1030D000314650313246643258C958C20C9C206780
:1030E000204660301CF0DAF8042900D2DEE0C17816
:1030F0000A91817806910178059140780490246EB8
:103100000C98466E0C98C6670C9884670C98026AF7
:103110000C98436A0C98806A03900C98C16A0B9DC6
:103120000C9874306A602A46083252C26861AB61FA
:103130000398E86100200299087304980002059939
:103140004018069909040A9A1206511808180C9991
:103150004867089D0B98041D10A821462A4600F0D8
:103160000DFD149E042E68D0119D10980A9013989E
:1031700006901298059020460BF0D6FB022E72D0D6
:10318000032E6CD00C9EB16FF26F504B05981CF063
:1031900079F8099A1582506091600A98D060306F72
:1031A00006998142089D00D057E709990C1D00201F
:1031B0000870F36B326A243662CE0B9844600A9230
:1031C00082600696C6600E4601612A464561089DEA
:1031D000194683610492059120461CF05FF80B9A12
:1031E0000A9BD3610834079A069B18C2083A134613
:1031F000083343C3049850610598906100200299F8
:1032000008700C9E31469C3110A801F0B7F80320DD
:103210000121109A0C2A00D008460999087016D08E
:1032200010990B2940D10998008AC01C03218843BA
:10323000F16B08180830F0630FE70C200199086063
:10324000042038E00C2001990860032033E00C20B2
:103250000199086005202EE00120B06428E0019863
:103260000A992A4625E006211DE0002007990874E6
:10327000B06B344620341ECC0B9D6960AC60EA60B4
:103280002B616861843610A8314601F0D1FA10989C
:103290000C2804D10C200199086006200BE010993D
:1032A0000B2901D10B2103E0119A01E004222946E8
:1032B000019806C001200B99087017B0F0BDC046F8
:1032C000502502106C230210FC0F0000344E021037
:1032D000F0B503AF99B0119209904F4808180C90BF
:1032E00047208000081803908520800008180D9062
:1032F000FF2000010B900846883010900846A83047
:103300000E900846D0300A900846F03006900846E5
:1033100068300F9040780D461395400078448088BF
:10332000400087440D00A700B000DD0013014A00F3
:10333000400065000F0336035B038B03AC01D00133
:10334000E86D1290286E08906C6E03CD139D2D6A67
:10335000139A566A139A926A0792139AD26A05923E
:10336000139A129B1363139A089B5363139A9463E3
:10337000139A9060139AD160139A1561139C666139
:10338000079AA261059AE2610B9A0F320346134035
:10339000149362D10A40159263D10A1A520B64D079
:1033A0000023E36370E00398007800283FD00328EF
:1033B00000D1B9E3194814F053FB28466C30029051
:1033C0000C9EF11DF079002807913CD00328109C39
:1033D00053D1204610300590F01C0890F07800285A
:1033E00038D003280E9C00D1AFE10D4814F038FB13
:1033F00028466C300790109E30460C300890307B89
:103400004000C04678448088400087440B00390063
:103410003C0037026802C0463502000060250210F9
:10342000302502102A6F6C6FA96FEB6F13E2286FC3
:103430000D906B6FAC6FE86F11900F9881690C91D4
:10344000C069129055E30F988369C269E86F1290C2
:10345000E86EEFE021696069FDE014A8E4490CF032
:10346000BDFD15A8E3490CF0B9FDE3485121E34A3D
:1034700014F0F0F9E24814F0F3FAE24814F0F0FA2C
:10348000E14814F0EDFAFEDE0A1A0024814200D26F
:1034900022461293150B6E1C0B980F30024207D177
:1034A0002E4605E000202946224601F0A1F9641CC1
:1034B000A642F7D11298B04200D123E1139D286BA8
:1034C000696B13220C9B99500F21585000200D99C5
:1034D0000860012159761876A868E968E8662967C6
:1034E0002C466C3416A82146119AFFF79DF8169DBC
:1034F000022D00D1FCE018981290179E20460BF088
:1035000032F9012D00D104E10024139D2C646E6476
:10351000129AAA64F00700D1A1E0EA641398056B3F
:103520001398406B0890139886681398C1680791A8
:10353000304601F06BF91399CD66139D0899296700
:103540006E670799A967E8670E9804722C466C3479
:1035500016A82146119AFEF79BFF16980C28029494
:1035600000D1CAE017981290169E20460BF0ECF896
:103570000B2E00D0F0E21298C0B2022800D075E203
:103580006A69042A00D2CBE0AE68E86C1290A86B9E
:103590000468296904209D4B1BF074FE042900D0A7
:1035A000C4E008960470210EC170210C8170210ABC
:1035B00041702E46103656CE0420954BFDF736FD51
:1035C00002460B46F66816A82146B0471798169E85
:1035D000042E00D0A8E0021D2A650A26100C00D097
:1035E000BAE20B998A4200D9B6E212980003089B0E
:1035F000C018031D12930B180C330F988361C2611E
:1036000000200C99C871A86808901398C568139891
:10361000006B139E766B139CE066139C2667139ECB
:10362000089C74670E4613998D67139D1299E9677C
:10363000F11D0791109C0021F17021460831236093
:103640006260129AA260E36021616061F21C0892DC
:10365000224610320592A161E0610E9C6CE0286B5D
:10366000696B13220C9B99500F2158500D980460E0
:10367000022058761C76A868E968E86629672C4617
:103680006C3416A82146119AFEF7CEFF169D022D26
:103690002AD018981290179E20460BF064F8012D3E
:1036A00000D159E2F00700D1E0E100201099087341
:1036B000139DA868E9682A6B6B6BEA662B676867DD
:1036C000A9671298E8672C466C3416A82146119A0F
:1036D000FFF732F816980C2816D017981290169EFD
:1036E00020460BF060F8B9E10C200999086038E237
:1036F0000C2009990860032033E20C200999086026
:1037000004202EE2052627E20C20099908600D20EE
:1037100027E20120139908644E64129888641BE222
:1037200004201290002617E2129015E20423374A73
:103730000846194614F0AAF90A6849680A9B1A60F3
:1037400059600D99C8610020307016A82146119A61
:1037500000F0C8FC2046169C032C00D188E116A975
:103760004A89049209891291179E0AF099FF002C48
:1037700009D0022C1AD1062E09D1109B9869016834
:10378000091D01601CE0109880690068009001210B
:1037900008980191017005980BF062F9022C14D180
:1037A000129880B204990904081834E01298C01CD9
:1037B00003218843109B99690A68801808300860C3
:1037C0009969D8690E9C0C9EB6E7109A1068009B08
:1037D000C01A002608281DD30321884308385168E1
:1037E000884230460799019A17D31646184614E0C6
:1037F0008C2302109C230210AC2302100024021020
:1038000010240210402502107C220210544E021097
:103810002024021030460799019A12900A700298EB
:103820000BF076F8022C00D196E1012E00D145E193
:103830000020109E3073EB6CA868E9682C6B6A6BF3
:10384000EC6604462A676867A967EB676C350795DD
:1038500030460C30089012910F9DEC610EC6214647
:1038600000240E9804760360139BDB6EAB61139DFE
:103870007360B260F160129830610C3E34461034CF
:1038800016A82146119AFEF757FF16980C2800D16A
:103890000CE117981290169E20460AF084FF0B2E1A
:1038A0002CD112982070C0B20B2601282ED12C46A4
:1038B000B034202120461CF09FFA042000210E9EE7
:1038C00031710F9A9169D269109B59619C61D861DD
:1038D0000B9880189968090340180C30306028460E
:1038E0009C30FEF733F9C0B20B26129004280E9CD0
:1038F0000799089A00D10CE004260AE001200899F3
:1039000008700C2E0E9C079905D1D2E00E9C0799E9
:10391000089A0120107008460AF0F9FE0B2E00D01C
:103920001AE1EA6CA868E96800F070FF6865002198
:103930002172A968EA682B6B6C6BEB662C67696770
:10394000AA67E8672C466C3416A82146119AFEF740
:103950009FFD16980C2800D199E017981290169E9A
:1039600020460AF0F1FE0B2E00D0F5E00F981299D8
:103970000170C8B2022879D1002010990873686DCF
:10398000A968EA682B6B6C6BEB662C676967AA67A2
:10399000E8672C466C3416A82146119AFEF7CCFE37
:1039A00016980C2878D017981290169E20460AF088
:1039B000FAFE0B2E00D0CFE06A6DA868E96800F02F
:1039C00025FFA86500210E9A1172A968EA682B6B81
:1039D0006C6BEB662C676967AA67E8670F98041D34
:1039E00016A82146119AFEF753FD16980C2858D0B8
:1039F00017981290169E20460AF0A6FE0B2E00D0B5
:103A0000AAE012982070C0B2022829D0002006999E
:103A100008702B4608330FCB2C6B139D6D6B139ED8
:103A20003467139C6567139DAA67EB670F9A9061D3
:103A3000D161686DA96D109A116050602C46703488
:103A400016A82146119AFFF79FFA16980C2819D04C
:103A500017981290169E20460AF0DDFE0B2E7BD1A1
:103A6000E86B431CEB63A868E9680DE5062673E084
:103A7000032007990870089908700C2009990860BC
:103A800005206EE00C20099908600B2069E00C20ED
:103A900009990860082064E00C2009990860092051
:103AA0005FE00C20099908600A205AE00320089979
:103AB00008700C2009990860072052E02C6D6A6993
:103AC000944254D812980F99C8610020039A10703C
:103AD000AA68E8682B692E6B11966E6B1199E966DE
:103AE0000D962E676B67AC671192EA670C900F9981
:103AF00088611398C56E184621461E461BF096FB3A
:103B000010998C8008600E980C9A0260129A42609C
:103B100000200A9A10718D60139D0D98C86009618C
:103B20004E618C611198C861903516A8294600F045
:103B300025FC16980C2807D10C2009990860032051
:103B40000399087006200CE0179A169E012003992D
:103B500008700B2E09D10B26099806601299416056
:103B600001200F99487019B0F0BD1292F4E70020BF
:103B7000014B214613F02EFE30240210F0B503AFA6
:103B800097B016460D4606901F20000108180390B6
:103B9000852080000A18912080000C186820085C9D
:103BA00068310A91294688310B912946A831049140
:103BB0000C9609954000C0467844808840008744B0
:103BC0000B00320135017300B5003A006700F800C0
:103BD0005F01B701EE013502059207945CCD2868BC
:103BE0000D906868A968EA60103D2A4620325BC2E1
:103BF0000D9A6A63FA4AD21C034613400E9300D012
:103C000004E10A400F9200D004E1081A400B079C1F
:103C1000059A00D102E1002010600121A1726072BA
:103C2000E869296A16466A6AAB6AE9662A67324613
:103C300009C40C9E083C059207942C466C3410A8CD
:103C400021463246FEF7F0FC109E022E01D10520DF
:103C5000EDE012980D901198089020460AF083FD2F
:103C6000012E00D102E2089828640D9A6A640028A7
:103C70000C9E00D0BCE00020059908600221079C42
:103C8000A17260722B461C330FCBE9662A6709C408
:103C90002C466C3410A821463246FEF7C5FC109E17
:103CA000022E0FD10620C2E0059207942C466C34F8
:103CB00010A82146324600F015FA109E032E11D1AD
:103CC0000320B4E012980D901198089020460AF055
:103CD0004AFD012E4ED10120E866089E2E670D9CFC
:103CE0006C6779E112980D901198089020460AF0BF
:103CF000D7FC002E079C059A8DD0022E00D1B5E18D
:103D00000898E8660020039B5871E86A296B0A9AB4
:103D1000D0610D981081A86BEA6B0B9C21606060EC
:103D2000A260059A079CE86918600C9E05920794AA
:103D30002C466C3410A82146324600F073FA109ECF
:103D4000042E03D104211022084672E010A8008A34
:103D5000029012980D9011980890139801902046A7
:103D60000AF0B4FC022E47D0032E079C059A00D01F
:103D700051E77BE10020E866089929670D9E6E6790
:103D8000C90740D0049908762C461C341ECCE9673C
:103D90000A998C61CA610B990B60991A00D201468D
:103DA000002E0C9A00D10E0B701EA8670B9948606C
:103DB00016462C467C3410A821463246FEF768FB96
:103DC00010980C2801D1072031E011980D90109D1A
:103DD00020460AF0B9FC08950B2D00D046E10D985D
:103DE000000600D0BEE00120099DAA6F28646A6425
:103DF000AA6400214C202EE0A86B0C9000200D9BA3
:103E0000019E029CAFE006260320ACE00EA8AF495D
:103E10000CF0E4F80FA8AE490CF0E0F8AD485121E1
:103E2000AD4A13F017FDA84813F01AFEFEDE042178
:103E30001022069D0AE0A4B2120412192E606A60D4
:103E4000AB600C9AEA60286101201422A9500A99FB
:103E5000087017B0F0BD2950286A11030818994955
:103E60004118001DA865E96500200B990871E86AF2
:103E7000296BEA692B465833EB662A676867A9679E
:103E80002C466C3410A82146324600F053FB109D9E
:103E9000022D6BD0149808901398079015980590F0
:103EA00012980D90119E20460AF0EAFBE8075FD1B8
:103EB000002E22D0079812900D9811901096089815
:103EC000139010A81BF0EAF904290C9E099D56D303
:103ED000017842781202511882781204C0780006E4
:103EE00080184018696B09688842BDD104200121FF
:103EF000E964059929656865B6E7099DE86C0028BD
:103F00000C9E3FD10020049908732C461C341ECC13
:103F100029676C67AA67EB67991A00D20146080BFC
:103F2000A96C002900D00846401EE8660A998861FD
:103F30002C46703410A821463246FEF7A9FA109894
:103F40000C2811D011980D90109E20460AF0FCFB11
:103F50000B2E0FD10D98000604D1EA6E48201146B1
:103F60000C9E78E7022039E0092060E708205EE730
:103F70000D9C31E00D9C220C0320069D5BE7042480
:103F8000002629E00020039B5872296D6A6D29667E
:103F90006A66C0430B9AD1601061E86958602C468C
:103FA0006C3410A82146324600F09CF81099032981
:103FB00001D10A203BE712980D90119808902046F5
:103FC0000C460AF06DFB022C0CD10220A867089E5B
:103FD000EE677C350D9C6C60220C0320069D2AE761
:103FE000FC0F0000AC670898E86728467C300D9904
:103FF0004160E00746D008460022EA66089B2B672E
:104000000A99CB610646039C62778881286E0890E6
:10401000E96A2B6B0B98416183610899C161068045
:104020000C9ED04304990860E869A0612C46843452
:1040300010A82146324600F0F5F8109E042E01D15A
:104040000B20F4E612980B901198079014980D909D
:104050001398059020460AF039FB06200890C046C8
:104060007E4436797600B744012716070D9C220C52
:104070000320069D089EDEE60B9B1A0C0320079E7C
:104080001C46ABE7002406260120E8662E676C6715
:1040900003202246A2E70798002808D0286E0C903B
:1040A000696E0120059E069D0D9C0B9BC3E605983D
:1040B0000D900B980890D9E708483921084A12F06A
:1040C000ADFFC046FC0F0000702402104024021017
:1040D00050240210AC23021060240210E0250210CC
:1040E000FC250210F0B503AF85B004920D46029096
:1040F000612080000A18507A0028039204D0032817
:104100002CD0454813F0ACFC5068A96AEA6A2B46EB
:10411000303307C3202128461BF06EFE08213F4A9A
:1041200028460AF05CFD04460E4628626962686B08
:10413000A96B82198A4207D90020039A029B43C3C4
:104140000120507205B0F0BD0021039A11720021C8
:104150001170296B2A463C3252C2A8642C463C346A
:1041600020460499FDF7ECFFC6B2052E25D0204667
:104170000AF0B7FA042E25D12C6A6E6A0020014697
:104180008E42DAD0625C491CFF2AF9D0072E3DD955
:10419000A079E179090208180190201D00901BF018
:1041A0008BF880B2019988420FD0039A107A0028C8
:1041B0001CD101201072686BC9E7032002990860C6
:1041C000039ABEE704210220B7E7009908784978EE
:1041D00009020E18F01C03218843696BAA6B0818AA
:1041E0000830904206D900260621ECE70026062179
:1041F0000220A3E72078617809020818A178090451
:10420000E278120651180918012096E706200821C5
:10421000034B324613F0DEFAD0240210C024021001
:10422000E0240210F0B503AF8BB008920C460323D4
:10423000D90161184A7A002A099106D0059306909F
:10424000032A42D0494813F00BFCA688A6812568B2
:10425000A56049680391A162A169E2692161626177
:10426000002D20D005930690F01C032301900293AB
:1042700098430795256A636A04930835079BE362B0
:10428000256360630A952B18049DAB425AD882427D
:104290000DD201210904019D0D4008210791064618
:1042A0000698029C51E00025012407954DE000236B
:1042B000099E3372039D2E4BFCF72AFBA563E06336
:1042C00021640A98606400203070254638352846FD
:1042D0000899FDF735FFC6B2052E1BD028460AF017
:1042E00000FA042E1BD1A18962698A423AD320695F
:1042F0001AF09CFFE16A884216D0099E307A0028A5
:104300001BD101203072206B0A90606B21696269B9
:10431000A56AD0E704200699086003201EE0002566
:1043200004200790059C0FE0206907906669114DF5
:104330003540A289A168022406E021696269A68944
:10434000A0680790002425460698B3B22B4304606A
:10435000079C44608360C160026101200999487232
:104360000BB0F0BD0020044B13F034FAF02402101F
:10437000102502100000FFFF00250210F0B503AF6A
:104380008BB00D4606464420085C443106912C460D
:104390008034C046784400794000874402BBBE1890
:1043A00072A30596002020722B68AE68E868296920
:1043B000EA690196AE64EB642A6502932B62686237
:1043C000A9620392EA6220460830049011E0204678
:1043D00008300490207A002804D0032826D04F48C3
:1043E00013F03EFB0596A86C0190E86C0290286DD6
:1043F00003902E4654362021FF2230461AF0A4FFA7
:1044000001990868686589880698818207A80180F3
:104410001AF052FF0699C882082002996967AE67B0
:10442000E8670020207103982060059E28467430BC
:10443000FDF78CFB0121049A1170C0B204285AD1F7
:10444000696AAA6A3748009003201346834307A885
:104450000AF05CFC089807990A9A0492099B0024C8
:10446000069A14752C6A0596EE6A08362963686305
:10447000AB63049AEA632E64AC64E96428656E65F4
:10448000059E28464830FDF761FBC0B2042832D1B2
:104490000596EE6B002E36D02C465C34202104911C
:1044A00020461BF0A9FC204B304626462146049AA4
:1044B000FCF72EFAAA6BEB6B1C4C00941AF01EFF53
:1044C000E86BC11C03208143002021291ED2069ADB
:1044D0001075286A2A6C6B6B9A18A864EE642965BB
:1044E0006A65059E48352846FDF730FBC0B20428B2
:1044F00001D10B2100E00421316070600120069998
:1045000008700BB0F0BD0B21059EF5E72022084B8B
:1045100013F060F9024813F0A3FAFEDEB024021093
:10452000702502108025021090250210A02502108F
:10453000B0250210F0B503AF93B009920E4601907A
:104540006B20800008180C907320800008180A90D7
:104550002020085C20310291784400794000874493
:1045600002262C0AB4003168331D0DCB316134466C
:1045700014340DC422E0324624320A9B191D1879E6
:104580000028079106920CD0032813D130462C3016
:1045900008901878002807D003282AD07C4813F008
:1045A0005FFA716AB06A13E0F16A306B17E07A481B
:1045B00013F056FA774813F053FAFEDE7162B062D8
:1045C00000220A9B1A711A1D079232462432069263
:1045D000F162306300221A7032462C320892716305
:1045E000B0630A6849687266B16600210C9A517717
:1045F000906135463C350EA82946099AFFF772FDB1
:104600000E9C032C00D182E00EA8418905910089FF
:104610000B900F980D9028460AF042F8002C0CD011
:10462000022C10D10D9806280A996CD1706B016884
:10463000091D0160716BB06BD3E7706B006803906C
:10464000002504950CE00B98C01C03218843716B76
:104650000A68039280180830086001250020049041
:104660000A99089801240C700AF0FAF9079808943E
:10467000047006980AF01FF8049800285FD1059886
:1046800000040B9989B209180C9885600D9BC360D2
:104690000B910161039C4461002D63D0022D5CD01D
:1046A0007462B1690020B06100296DD0F2691D46C5
:1046B00033695B6831647264B464F3640B99B185E7
:1046C000B5620C99487170690860344628340EA8A8
:1046D0002146099AFFF7A6FD0E9D042D20D01098C3
:1046E0000B900F980D901298089011980790204603
:1046F00009F0ECFF022D19D20798B0610898F0611B
:10470000316970695AE7022501200490A9E7032066
:104710000A990870079908700221019A116003E054
:10472000022001990860042002992AE00898079D58
:104730000B9C0D9B1BD1716A0C91002614E002208A
:10474000059909040B9A92B254180C9988600D9B34
:10475000CB600C610299019A02E00299019A0B9CCC
:10476000089E07E02E462B460299019A02E0019A24
:10477000012602991660161D38C610610C9850610A
:104780000120087013B0F0BD044813F059F8C0467A
:104790003025021020250210C0250210D02502105D
:1047A000B0B502AF0D460446087F002804D00328A8
:1047B00009D00E4813F054F90020287607CD0C3D9F
:1047C0002B460C3307C328460C30FDF757F901215F
:1047D0002977C2B204210B200023042A00D01346FB
:1047E000636000D008462060B0BDC0460C260210B1
:1047F00080B500AF002904D080181BF0D1FE084618
:1048000080BD014813F022F91C26021080B500AFCC
:10481000081A00D20020010B04D0501C1BF0C0FE6F
:10482000084680BD014813F011F9C0462C2602103D
:10483000F8B504AF04460D4628352879002804D081
:10484000032814D0134813F00BF90020287088684F
:10485000CA6800920B690E681B031B180122120321
:104860009A18486100988861CE610B624A621C31D7
:104870000846FDF703F901212971C2B204210B207A
:104880000023042A00D01346636000D0084620604D
:10489000F8BDC0463C260210F0B503AFABB00C919A
:1048A000006805682868002833D0284620300D901D
:1048B0002846403009902C466834284688300B90B2
:1048C0000120010204918102069141030891010433
:1048D00002910A9040040390287A00280F951094C2
:1048E00001D100F03DFF032816D128460C30079077
:1048F000284614300590287D0D9EC04678440079E6
:10490000400087440294A0C3D91C07980068059909
:104910009AE0072001F013F828460C301A902E4632
:104920001836287E4000C04678448088400087447E
:1049300004007B008A00F9062807286998E03046C1
:1049400016300E90B07DC046784400794000874410
:1049500002717A170700AC69E869296A0D9BD9E0F2
:104960002078400078448088400087440700690030
:104970006C00FC022A003A00FE05FC022C6DFCE0F3
:10498000099801460A311191807A40007844808864
:104990004000874404005200580007001D06AC6B1D
:1049A000099B54E122461F32E07F002828D019924B
:1049B00003280C98F54E01D100F09BFFF44813F04A
:1049C0004FF80B9A10461B301990D07E00281FD04C
:1049D00003280C98069EED4C00D143E2ED4813F0FD
:1049E0003FF828466C3023461A34997E002917D0A8
:1049F00003290C9901D100F09EFDE74813F030F82F
:104A00000B9841780378686F1790AE6F00F032FF13
:104A1000517F147F9368D068566915460246FFE1BE
:104A20001A7EE96F00F082FDDC4813F019F8DC48CB
:104A300013F016F8DB4813F013F8DB4813F010F806
:104A4000DA4813F00DF8FEDE05912861FE21415C85
:104A5000002910D001202875002028766868D449E4
:104A60004031E960286129460C311A912E461836EA
:104A7000686100F04EFE002129770D9E31720146DB
:104A8000A0312962432189004018A8610C9804686C
:104A9000304621460BF0B8FCC0B2052807D1287F6C
:104AA00000280FD0032810D0C24812F0D9FF0021EF
:104AB000717030702869E86128461830FCF720FCD6
:104AC00000F095FEBC480299016006CCBB4813F08B
:104AD000E0FCBB48006D0399084200D1A6E30846FC
:104AE00000242194209420AA0821064620460B4643
:104AF000FCF7CCF8B2480665A448046044602098EE
:104B000021990D9B9C752C69AC61E86129621A465C
:104B100016320E926862A962020A9A74E985020C42
:104B2000AA85C2B2D2095A754206920F1A75090CAB
:104B300029861F210140042900D304210D9AD17434
:104B400029462C3140B2002866D420AD28460A30D0
:104B50000A221BF0F8F91BA81A901426294632469F
:104B60001BF0F1F90F9D2C65284654301A993246F6
:104B70001BF0E9F90020109908702C642846543085
:104B800029465E310A221BF0DEF9002640210998F1
:104B9000008B2A46443243C24121890061184C6887
:104BA00084420ED2874813F003F8686C12F0F4FFC9
:104BB000204612F0F1FF13F0EBF8002043218900AA
:104BC000CCE10968804B2246FBF7A2FEAA6C002AC2
:104BD00001D100F07DFD0123109C2377A261A8671D
:104BE000E96730460026EE66012802D12C6F6A6F15
:104BF00005E07835284611F089FD04460A46002C68
:104C000078D01098017F06770F9DE86E01281A91E1
:104C100000D0E3E0286FECE020A8021D28C928C2DC
:104C2000098811801BA90A4668C868C200881080DC
:104C30000F9EB46330463C302CC92CC00022099B27
:104C40009A720988018018460A3011903546EC6343
:104C50002120C00020581790412080002158587A08
:104C60001490DA799879189098881A905888169044
:104C70001888159020469C301D7A0B46022D129103
:104C80001992139539D0002D3AD11999002900D1E4
:104C9000B9E1012900D192E1022931D11898002807
:104CA00001D000F08DFC169841B28020002900D47C
:104CB000842016990907490E08184449405819904C
:104CC0000225434B2846129C2146179E3246FBF78D
:104CD0001FFE199A1205D30F20AA13803D4B009393
:104CE0002B461AF00BFB2346012E33D8002002215D
:104CF000394B83E20F9DE96CE6E0002A00D14BE1DD
:104D00005C340068C500002D01D100F059FC216819
:104D10006068C66A27AA149850721398107219987E
:104D2000D071189890711A989080169850801598A4
:104D300010801798009020A8B0472098002803D131
:104D4000083D0834129BDEE7229D219B002B01D1F8
:104D500000F036FC40200F9C206600206065A365B3
:104D60000121E164109A11721A9AAA4200D32A46CC
:104D7000E2653F2313405A425A411A9B9D4200D399
:104D8000014611402165254600F034FD8000105099
:104D9000143C0210243C0210D43B0210C81F021025
:104DA000F81F0210D81F0210E81F0210282002105E
:104DB000B03C0020E43B02109020115084310020D0
:104DC00000001150310000000820021000001050B7
:104DD000F81E0210081F0210181F02102846783013
:104DE000199211F093FC0122EA66199A2867696703
:104DF0001A990B9B1977DE769C60DA60414241413B
:104E0000597743208000264614462A6C1D46101808
:104E100022461A9C33460646686128461B30199084
:104E200069762C762B606A60DC4C201D28616068F6
:104E3000089A104041424141A9763188D84B194027
:104E40000143514061600C201AF06BFA3088D4495C
:104E50000840A97E49030818069E30432969086066
:104E60000F9D0C98006806C8CE4813F012FB6468CA
:104E7000344200D068E1701E04400B9E7268A2426A
:104E80000CD20A9819990870C74812F091FE0020B8
:104E900016F0AAF912F07CFF109C5EE33168C34B58
:104EA0002046FBF735FD02460B4640210498FBF7F0
:104EB000EDFE0A98F076E86C0119E964A86C84426A
:104EC00002D3686C814278D1099E2B6C2120C000EE
:104ED0001A58914201D900F0F7FB41208000185880
:104EE0001A469C321690A8631791E963707F15905B
:104EF000F17EB57E308B1490F08A1990B48A307FA1
:104F00001390002834D0129118945C331068C400B8
:104F10001195002C00D1FEE003CB896A1A9120A9DB
:104F2000159A4A72139A0A72129ACA718D71149A5A
:104F30008A80199A4A80189A0A80169A083B1D4658
:104F4000179B1A9EB0472B46119DC1B2083C0833EF
:104F50000229DED0C00700D1D3E2DCE02A6C511870
:104F6000E9662867109C28466C300EF025FEF4E2B6
:104F7000002900D1C0E001291998C6B259D00229F0
:104F8000C1D1012D00D1E4E0032D00D0C3E0002CFD
:104F90000A9800D0BFE0DFE0256C002D00D1AFE61D
:104FA000214644310978189A8A4200D0A8E6169919
:104FB000072900D0A4E6E36BCCE6E86E12E6A16D0B
:104FC000169A914200D8FBE218990A2900D131E1E2
:104FD000002900D094E60225754B28461299179CAB
:104FE0002246FBF795FC20AA00231380714B009307
:104FF0002B461AF083F9129B012C00D9AAE6002057
:1050000002216D4BFAE02146FF31189A002A00D1A7
:10501000D7E0062A00D1B0E0082A00D0D0E21798E5
:10502000002800D15FE3C878001F41424141197058
:105030000AE11894986DB0426DD90B2D6BD17000B8
:105040001C184834189DE8B26178814200D8D8E035
:105050001A9616922570D86A196B26912590159389
:10506000A03317930026354620A825A913F0F8FA97
:105070002098012800D0C8E0229900293AD020A821
:105080000079239A28922791022823D0042814D04B
:105090000528E9D127A813F013FBC0072AD1F0B2E5
:1050A0001A9A9042E0D1E8B22278101A4242424164
:1050B00017980BF051F9199ED6E727A813F000FBBB
:1050C000C00717D10E4627A813F0FAFAC00711D16E
:1050D0000D46C9E727A813F0F9FB80B2002809D1D3
:1050E00027A813F0EDFAC00704D127A813F0E8FAB7
:1050F000C007B9D0DD488CE1681E08280BD81E46D1
:10510000FF3602A1085C40008744C0460A05BA0584
:10511000A0050505CF000020432189000F9D1DE754
:10512000012CF8D1002030705C331068C400002CD2
:1051300000D1E6E103CB0A6A0021083B1D469047F7
:105140002B46083C0833F2E7032019990870042025
:1051500019E20020002CDED10F21199A0A40199281
:1051600074B200D101E184238022C149002C00D413
:105170000C4900D5B5E11A46B3E11599090A4A1E52
:10518000052A00D900E152007A44928852009744DF
:1051900015009E015901170217029A018000105054
:1051A000FF0300008431002032000000343C021074
:1051B000B81E0210C81E0210D81E0210E2341225BA
:1051C00083E1487819900C780225AA4B2846129959
:1051D000179E3246FBF79CFB6200D3B2199A134329
:1051E00020AA1380A44B00932B461AF087F8129B39
:1051F000012E00D9AEE500200221A04B179A12F033
:10520000E9FA9F4812F0DFFC85E7159D5C3516989A
:105210000068C400002C00D173E103CD4B6A1999DA
:10522000189A083D9847083C0835F3E7032028778B
:10523000059980E31798002800D157E2169840009E
:105240002018483000781870012583E5601E80B270
:105250007F2800D35FE70320F0700120B070347125
:105260005C331068C400002C00D14AE1317905CBD1
:105270005269083B1D4690472B46083C0833F2E72D
:10528000012C00D047E7012434705C331068C5005E
:10529000002D00D135E103CB0A6A2146083B1E46AA
:1052A00090473346083D0833F2E7002C72D0012CBA
:1052B00000D030E716920420F070D86A196B26915E
:1052C00025901846483019901D46A0351593986DC5
:1052D0001A900026344620A825A913F0C1F9209879
:1052E000012800D09CE0229900293CD020A8007918
:1052F000239A28922791022825D0042816D0052821
:10530000E9D127A813F0DCF9C0072CD1E0B21A9A32
:10531000824200D8E3E14000199A105CF2B2801A90
:105320004242424128460BF017F8D4E727A813F071
:10533000C7F9C00717D10C4627A813F0C1F9C00759
:1053400011D10E46C7E727A813F0C0FA80B2002893
:1053500009D127A813F0B4F9C00704D127A813F086
:10536000AFF9C007B7D0474853E047498B6E002CD0
:1053700000D5AFE0411E02468A415100022293430C
:105380000B4342498422AAE00F2900D018E1636B45
:10539000A56BDFE4F078022800D1B2E0169203207A
:1053A000F070D86A196B269125901D461C46A034D2
:1053B00020A825A913F054F92098012800D0E6E090
:1053C0002299002924D020A80079239A2892279195
:1053D00002280DD0042811D00528E9D127A813F000
:1053E0006FF9C00714D1002220460AF0B5FFDFE7AD
:1053F00027A813F06BFA80B2002809D127A813F070
:105400005FF9C00704D127A813F05AF9C007CFD01D
:105410001F4800901F482B212AAA1F4B12F0F2FAB6
:10542000159B5C3316980068C5000124002D68D0D8
:1054300003CB8A692146083B1E4690473346083D08
:105440000833F3E71599C9B2032900D9C5E0042050
:10545000890002A2515822468F46C0469D54001032
:10546000B9550010AB550010B3550010481F02107D
:1054700004310020781E0210881E0210981E0210AF
:105480002F000000281F021000001150843100205E
:10549000381F021080370210AC370210179900290C
:1054A00000D12AE104251D70012900D128E1032043
:1054B0005870022900D826E109209870032900D1EC
:1054C00024E1DD7046E4F4340A25234642E4E36A2D
:1054D000256B3FE401218B431B18F1498022F14CDD
:1054E000A366431E9841C002199BDB009A18EE4C3C
:1054F00015590126F602B54305431551C81812F097
:10550000ABFF432081000F9D286C4118FF2202321F
:10551000835C002B25D0801882780020109B987621
:105520001A76E96728466C301C461A34E9665A76C2
:10553000002119740C9909680EF00EFB00281FD188
:10554000109C607E7F210140D64801600A98A076B9
:10555000286CFF210231002242540E990120207054
:105560009AE10020109C2074E9660C980168284696
:105570006C300EF0F1FA00280E99EFD0062003E00F
:10558000032020700520109C20700420CFE15C35A2
:1055900016980068C400002CB3D003CD8A6900219E
:1055A000083D9047083C0835F5E7224608320C20B4
:1055B00002E022461032142021581268002A1DD120
:1055C0000020432189000F9DEA6B5118E96428658A
:1055D00028464C300EF0F0FA5AE15C340068C50001
:1055E000002DEDD003CC0B6B1599169A083C98470B
:1055F000129B083D08340028F2D002461798012873
:1056000079D9032058701892501815900225002659
:105610001696002E02D01698199025E0189C159821
:1056200084424ED0002019902056C6B2002801D4E2
:10563000641C18E062783F210A401F203040E02EB1
:105640000ED3A3780B409201D218F02E22D3E37828
:105650000B409101C9184007C00A0E18241D1CE018
:1056600080018618A41C18942846AD1C179CA542DE
:1056700033D2C349009129461A462346FBF7B7F8AF
:1056800020AA1680BF4B0093022319F037FE129B0D
:10569000199EBEE700031618E41C1894029886426F
:1056A000129BE1D33046A7490840372189024018B0
:1056B0001990FF2000043018800A1B21CE020643F7
:1056C000D2E71D70FFF746FB0020A24B12F082F8D4
:1056D000A1483721A14A11F0A1FCA84883E09C4AC7
:1056E0001A9912F0BDF800209E4A01E000209C4A61
:1056F000014612F0B5F8A04875E000209D4AF7E792
:1057000001209B4AF4E70220974AF1E70320974AD9
:10571000EEE7FE21415C002920D000210D9A117195
:10572000A030E8610C98046828461C3021460AF035
:105730006BFEC0B205281ED1032030701A98056890
:1057400092480068C0054DD12868002129600228D0
:105750001DD1904812F037FA0F9D01E00120307002
:10576000002028756868E860294614312A460C3202
:105770000792FFF769F900210D9A5171107168695C
:10578000286228461C30FBF7BBFD6869C1E700288A
:1057900006D121686068096888472291219009E054
:1057A0006A68AE682168606886420AD18A4208D178
:1057B000229621920120209020A9284609F06EF916
:1057C0000DE009681446884722912190012020901D
:1057D00020A9284609F062F961683046884704200C
:1057E0000F9DAAE06A4812F0EEF912F013FA286948
:1057F000FFF72CF900246C662E464C36012803D1A5
:10580000AA6EE86E1A9004E03046FAF7D6FF024618
:105810001A91002A0E990AD01098017A19910472EF
:105820000F9D686E012804D1A86E18900BE00F9DA3
:105830002FE030461646FAF7C0FF01226A6632466C
:105840001890A866E96617926A671A98A86710996F
:10585000CC770C460B9B199E1E7043218900EA6B86
:105860005118A161189A5142514159703346064668
:1058700022461F3261772377402E17D901201070FE
:10588000414812F095F9002015F0AEFC12F080FAB4
:105890000E99119A0120107001200870A7E7C046E8
:1058A00004310020000011500000105019924021D6
:1058B0000498179A3346FBF705FA32461A96224E99
:1058C000EE6730680899084041424141A177104392
:1058D00005214903414031600C2019F022FDA07FD1
:1058E00040031A990843212189020143E86F0160AE
:1058F0000C98006806C8154812F0CBFD3068069970
:105900000842199E0FD1607F012808D108980E4CDB
:1059100060600C2019F005FD092080026060012004
:105920003070686E66E70320307011990870059931
:105930000E9A1070052008700320287206202BB0E4
:10594000F0BDC046FF03000080001050043100206D
:10595000581F02103820021034370210182002108D
:10596000E81E0210A81E0210881F0210981F0210C5
:10597000781F0210681F0210720000007100000002
:10598000A81F0210B81F02103000000004ED00E054
:105990007800000027000000F0B503AF8BB0039142
:1059A0000068056803CD083D01431ED02846193024
:1059B00001902C466434287C002818D0032832D16A
:1059C0002946143126460D36607B002818D003285E
:1059D00026D10491201D05902079002812D002962E
:1059E00003286ED0714812F03BF80720D7E006A8D4
:1059F00013F04CFE069EF00708D10798E8601AE005
:105A0000E86E20E06869AA69E96929E0724812F045
:105A1000CFF8300A13F0EAFE12F0BAF912F0FAF8F1
:105A2000634812F01DF8039801682846203012F0F0
:105A3000ADFD002822D100206073A868E8662946E1
:105A4000143126460D36049100232373006801218A
:105A500022460C326861AA61E9612371231D059316
:105A600028626A62A96200290AD00189E962006895
:105A70000068BFF35F8F6863286306E004208CE052
:105A8000544812F0A0F812F0C5F86A6AAB6A4949A6
:105A900000910121FAF7ABFEEA6A002A00D180E00A
:105AA0002B46383307C32846383010F02FFE002825
:105AB0002FD00296002222702A6A121D6A64A864FE
:105AC000E964039802682946443106AE3046FAF785
:105AD0002BFF30780228029E5BD006A9C00709D0B0
